{
  "_format": "hh-sol-artifact-1",
  "contractName": "Store",
  "sourceName": "contracts/Store.sol",
  "abi": [
    {
      "anonymous": false,
      "inputs": [
        {
          "indexed": false,
          "internalType": "uint256",
          "name": "newValue",
          "type": "uint256"
        }
      ],
      "name": "CounterIncreased",
      "type": "event"
    },
    {
      "inputs": [],
      "name": "getCounter",
      "outputs": [
        {
          "internalType": "uint256",
          "name": "",
          "type": "uint256"
        }
      ],
      "stateMutability": "view",
      "type": "function"
    },
    {
      "inputs": [],
      "name": "increment",
      "outputs": [
        {
          "internalType": "uint256",
          "name": "",
          "type": "uint256"
        }
      ],
      "stateMutability": "nonpayable",
      "type": "function"
    }
  ],
  "bytecode": "0x608060405234801561001057600080fd5b506101bb806100206000396000f3fe608060405234801561001057600080fd5b50600436106100365760003560e01c80638ada066e1461003b578063d09de08a14610059575b600080fd5b610043610077565b60405161005091906100f3565b60405180910390f35b610061610080565b60405161006e91906100f3565b60405180910390f35b60008054905090565b60008060008154809291906100949061013d565b91905055507f9389e4e5d18f626febd3fd1c8a0fc1a63c8ff20d46c4cca7221a57aa790edaaa6000546040516100ca91906100f3565b60405180910390a1600054905090565b6000819050919050565b6100ed816100da565b82525050565b600060208201905061010860008301846100e4565b92915050565b7f4e487b7100000000000000000000000000000000000000000000000000000000600052601160045260246000fd5b6000610148826100da565b91507fffffffffffffffffffffffffffffffffffffffffffffffffffffffffffffffff820361017a5761017961010e565b5b60018201905091905056fea264697066735822122026012005adc79481554281b562f00ba60d765db6fbba0a61b3425b474473543464736f6c63430008130033",
  "linkReferences": {},
  "deployedLinkReferences": {}
}